{
  "_format": "hh-sol-artifact-1",
  "contractName": "PlayListPortal",
  "sourceName": "contracts/PlayListPortal.sol",
  "abi": [
    {
      "inputs": [],
      "stateMutability": "nonpayable",
      "type": "constructor"
    },
    {
      "anonymous": false,
      "inputs": [
        {
          "indexed": false,
          "internalType": "address",
          "name": "sender",
          "type": "address"
        },
        {
          "indexed": false,
          "internalType": "string",
          "name": "name",
          "type": "string"
        },
        {
          "indexed": false,
          "internalType": "string",
          "name": "description",
          "type": "string"
        },
        {
          "indexed": false,
          "internalType": "string",
          "name": "url",
          "type": "string"
        },
        {
          "indexed": false,
          "internalType": "uint256",
          "name": "timestamp",
          "type": "uint256"
        }
      ],
      "name": "NewPlayList",
      "type": "event"
    },
    {
      "inputs": [
        {
          "internalType": "string",
          "name": "_name",
          "type": "string"
        },
        {
          "internalType": "string",
          "name": "_description",
          "type": "string"
        },
        {
          "internalType": "string",
          "name": "_url",
          "type": "string"
        }
      ],
      "name": "createPlayList",
      "outputs": [],
      "stateMutability": "nonpayable",
      "type": "function"
    },
    {
      "inputs": [],
      "name": "getPlayListCount",
      "outputs": [
        {
          "internalType": "uint256",
          "name": "count",
          "type": "uint256"
        }
      ],
      "stateMutability": "view",
      "type": "function"
    },
    {
      "inputs": [],
      "name": "getPlayListItems",
      "outputs": [
        {
          "components": [
            {
              "internalType": "address",
              "name": "sender",
              "type": "address"
            },
            {
              "internalType": "string",
              "name": "name",
              "type": "string"
            },
            {
              "internalType": "string",
              "name": "description",
              "type": "string"
            },
            {
              "internalType": "string",
              "name": "url",
              "type": "string"
            },
            {
              "internalType": "uint256",
              "name": "timestamp",
              "type": "uint256"
            }
          ],
          "internalType": "struct PlayListPortal.SpotifyPlayList[]",
          "name": "",
          "type": "tuple[]"
        }
      ],
      "stateMutability": "view",
      "type": "function"
    },
    {
      "inputs": [],
      "name": "totalList",
      "outputs": [
        {
          "internalType": "uint256",
          "name": "",
          "type": "uint256"
        }
      ],
      "stateMutability": "view",
      "type": "function"
    }
  ],
  "bytecode": "0x60806040523480156200001157600080fd5b506200004160405180606001604052806023815260200162000e2c602391396200004760201b620004ba1760201c565b620001db565b620000e7816040516024016200005e919062000154565b6040516020818303038152906040527f41304fac000000000000000000000000000000000000000000000000000000007bffffffffffffffffffffffffffffffffffffffffffffffffffffffff19166020820180517bffffffffffffffffffffffffffffffffffffffffffffffffffffffff8381831617835250505050620000ea60201b60201c565b50565b60008151905060006a636f6e736f6c652e6c6f679050602083016000808483855afa5050505050565b6000620001208262000178565b6200012c818562000183565b93506200013e81856020860162000194565b6200014981620001ca565b840191505092915050565b6000602082019050818103600083015262000170818462000113565b905092915050565b600081519050919050565b600082825260208201905092915050565b60005b83811015620001b457808201518184015260208101905062000197565b83811115620001c4576000848401525b50505050565b6000601f19601f8301169050919050565b610c4180620001eb6000396000f3fe608060405234801561001057600080fd5b506004361061004c5760003560e01c80636b4040aa14610051578063b6b5d5ff1461006d578063bde3340f1461008b578063beeb702d146100a9575b600080fd5b61006b60048036038101906100669190610687565b6100c7565b005b610075610236565b6040516100829190610985565b60405180910390f35b61009361023f565b6040516100a09190610941565b60405180910390f35b6100b16104b4565b6040516100be9190610985565b60405180910390f35b60016000808282546100d99190610a67565b9250508190555060016040518060a001604052803373ffffffffffffffffffffffffffffffffffffffff16815260200185815260200184815260200183815260200142815250908060018154018082558091505060019003906000526020600020906005020160009091909190915060008201518160000160006101000a81548173ffffffffffffffffffffffffffffffffffffffff021916908373ffffffffffffffffffffffffffffffffffffffff16021790555060208201518160010190805190602001906101ab92919061057c565b5060408201518160020190805190602001906101c892919061057c565b5060608201518160030190805190602001906101e592919061057c565b506080820151816004015550507f5bd7ead6a6667206b3fee510b2e5993023b02ad19b2d8dc68880e698234848b433848484426040516102299594939291906108d9565b60405180910390a1505050565b60008054905090565b60606001805480602002602001604051908101604052809291908181526020016000905b828210156104ab57838290600052602060002090600502016040518060a00160405290816000820160009054906101000a900473ffffffffffffffffffffffffffffffffffffffff1673ffffffffffffffffffffffffffffffffffffffff1673ffffffffffffffffffffffffffffffffffffffff1681526020016001820180546102ec90610b3b565b80601f016020809104026020016040519081016040528092919081815260200182805461031890610b3b565b80156103655780601f1061033a57610100808354040283529160200191610365565b820191906000526020600020905b81548152906001019060200180831161034857829003601f168201915b5050505050815260200160028201805461037e90610b3b565b80601f01602080910402602001604051908101604052809291908181526020018280546103aa90610b3b565b80156103f75780601f106103cc576101008083540402835291602001916103f7565b820191906000526020600020905b8154815290600101906020018083116103da57829003601f168201915b5050505050815260200160038201805461041090610b3b565b80601f016020809104026020016040519081016040528092919081815260200182805461043c90610b3b565b80156104895780601f1061045e57610100808354040283529160200191610489565b820191906000526020600020905b81548152906001019060200180831161046c57829003601f168201915b5050505050815260200160048201548152505081526020019060010190610263565b50505050905090565b60005481565b610550816040516024016104ce9190610963565b6040516020818303038152906040527f41304fac000000000000000000000000000000000000000000000000000000007bffffffffffffffffffffffffffffffffffffffffffffffffffffffff19166020820180517bffffffffffffffffffffffffffffffffffffffffffffffffffffffff8381831617835250505050610553565b50565b60008151905060006a636f6e736f6c652e6c6f679050602083016000808483855afa5050505050565b82805461058890610b3b565b90600052602060002090601f0160209004810192826105aa57600085556105f1565b82601f106105c357805160ff19168380011785556105f1565b828001600101855582156105f1579182015b828111156105f05782518255916020019190600101906105d5565b5b5090506105fe9190610602565b5090565b5b8082111561061b576000816000905550600101610603565b5090565b600061063261062d846109d1565b6109a0565b90508281526020810184848401111561064a57600080fd5b610655848285610af9565b509392505050565b600082601f83011261066e57600080fd5b813561067e84826020860161061f565b91505092915050565b60008060006060848603121561069c57600080fd5b600084013567ffffffffffffffff8111156106b657600080fd5b6106c28682870161065d565b935050602084013567ffffffffffffffff8111156106df57600080fd5b6106eb8682870161065d565b925050604084013567ffffffffffffffff81111561070857600080fd5b6107148682870161065d565b9150509250925092565b600061072a8383610837565b905092915050565b61073b81610abd565b82525050565b61074a81610abd565b82525050565b600061075b82610a11565b6107658185610a34565b93508360208202850161077785610a01565b8060005b858110156107b35784840389528151610794858261071e565b945061079f83610a27565b925060208a0199505060018101905061077b565b50829750879550505050505092915050565b60006107d082610a1c565b6107da8185610a45565b93506107ea818560208601610b08565b6107f381610bfa565b840191505092915050565b600061080982610a1c565b6108138185610a56565b9350610823818560208601610b08565b61082c81610bfa565b840191505092915050565b600060a08301600083015161084f6000860182610732565b506020830151848203602086015261086782826107c5565b9150506040830151848203604086015261088182826107c5565b9150506060830151848203606086015261089b82826107c5565b91505060808301516108b060808601826108bb565b508091505092915050565b6108c481610aef565b82525050565b6108d381610aef565b82525050565b600060a0820190506108ee6000830188610741565b818103602083015261090081876107fe565b9050818103604083015261091481866107fe565b9050818103606083015261092881856107fe565b905061093760808301846108ca565b9695505050505050565b6000602082019050818103600083015261095b8184610750565b905092915050565b6000602082019050818103600083015261097d81846107fe565b905092915050565b600060208201905061099a60008301846108ca565b92915050565b6000604051905081810181811067ffffffffffffffff821117156109c7576109c6610bcb565b5b8060405250919050565b600067ffffffffffffffff8211156109ec576109eb610bcb565b5b601f19601f8301169050602081019050919050565b6000819050602082019050919050565b600081519050919050565b600081519050919050565b6000602082019050919050565b600082825260208201905092915050565b600082825260208201905092915050565b600082825260208201905092915050565b6000610a7282610aef565b9150610a7d83610aef565b9250827fffffffffffffffffffffffffffffffffffffffffffffffffffffffffffffffff03821115610ab257610ab1610b6d565b5b828201905092915050565b6000610ac882610acf565b9050919050565b600073ffffffffffffffffffffffffffffffffffffffff82169050919050565b6000819050919050565b82818337600083830152505050565b60005b83811015610b26578082015181840152602081019050610b0b565b83811115610b35576000848401525b50505050565b60006002820490506001821680610b5357607f821691505b60208210811415610b6757610b66610b9c565b5b50919050565b7f4e487b7100000000000000000000000000000000000000000000000000000000600052601160045260246000fd5b7f4e487b7100000000000000000000000000000000000000000000000000000000600052602260045260246000fd5b7f4e487b7100000000000000000000000000000000000000000000000000000000600052604160045260246000fd5b6000601f19601f830116905091905056fea26469706673582212204335824d2261d4ace608a4a78270c25ff19944359e2eba49f8098e4f4f04e02464736f6c63430008000033506c61794c697374506f7274616c20636f6e7472616374206973206465706c6f796564",
  "linkReferences": {},
  "deployedLinkReferences": {}
}